:020000040800F2
:10000000002000206D0B0008450B00084D0B000878
:1000100000000000000000000000000000000000E0
:10002000000000000000000000000000550B000868
:1000300000000000000000005D0B0008650B0008D8
:10004000D90B0008D90B0008D90B0008D90B000800
:10005000D90B0008D90B0008D90B0008D90B0008F0
:10006000D90B0008D90B0008D90B0008D90B0008E0
:10007000D90B0008D90B0008D90B0008D90B0008D0
:10008000110B0008D90B000800000000D90B000874
:10009000D90B0008D90B0008D90B0008D90B0008B0
:1000A000D90B0008D90B0008D90B0008D90B0008A0
:1000B000D90B000800000000D90B00080000000068
:0400C0005FF808F1EC
:1000C40008B5054B054803331B1A062B03D9044B0B
:1000D400002B00D0984708BD2804002028040020E5
:1000E400000000000648074908B5091A8910CB0F1B
:1000F4005918491003D0044B002B00D0984708BD71
:1001040028040020280400200000000010B5074C3B
:100114002378002B09D1FFF7D3FF054B002B02D026
:10012400044800E000BF0123237010BD2804002010
:1001340000000000DC0B000808B5094B002B03D0BD
:100144000848094900E000BF08480368002B02D1B1
:10015400FFF7C8FF08BD064B002BF9D09847F7E717
:1001640000000000DC0B00082C0400202804002000
:100174000000000008B5011C00220020002300F04C
:100184001BF808BD38B5094B094CE41AA41009D072
:10019400084AA518AD00ED182B68013C9847043DAA
:1001A400002CF9D100F01EFD38BDC046040C000837
:1001B400080C0008FFFFFF3FF8B544465F4656466B
:1001C4004D469B462F4BF0B41C68A4235B00051CD2
:1001D400E0580E1C904600284BD043681F2B0DDCC2
:1001E4005C1C002D21D102339B0044601E50002072
:1001F4003CBC90469946A246AB46F8BD224B002B28
:100204003CD0C820400000E000BF002836D0A42223
:1002140000235200A15843600160A0504032835033
:10022400043283500124002DDDD09A00914681448C
:10023400424688214F467A50C42252009046804458
:1002440042468739994012688A460A439446424690
:1002540061461160842249465F4652008F50022D48
:10026400C1D1021C55468D32FF3211680D43156011
:10027400B9E7201C4D30FF30E050AEE7012040428A
:10028400B6E7C046F80B00080000000008B5034BB1
:10029400002B02D00248FFF76DFF08BD00000000EC
:1002A4008901000880B500AF1B4B1B4A126801216D
:1002B4000A431A60184B184A526818490A405A608F
:1002C400154B154A126816490A401A60124B124A15
:1002D400126814490A401A600F4B0F4A52681249B7
:1002E4000A405A600C4B0C4AD26A0F218A43DA62E4
:1002F400094B094A126B0D490A401A63064B064A18
:10030400526B01218A435A63034B00229A6000F026
:100314000FF8BD4680BDC046001002400CB8FFF87F
:10032400FFFFF6FEFFFFFBFFFFFFC0FFACFEFFFF7A
:1003340080B582B000AF00237B6000233B60314B6B
:10034400304A1268802149020A431A602D4B1A6808
:1003540080239B0213403B607B6801337B603B68D6
:10036400002B04D17A68A023DB019A42EED1254BFD
:100374001A6880239B02134002D001233B6001E0F2
:1003840000233B603B68012B38D11F4B11221A60BC
:100394001C4B1C4A52685A601A4B1A4A52685A60DB
:1003A400184B184A526819490A405A60154B154AA5
:1003B4005268882149030A435A60124B114A126851
:1003C400802149040A431A60C0460E4B1A688023F0
:1003D4009B041340F9D00B4B0A4A526803218A4309
:1003E4005A60084B074A526802210A435A60C046C1
:1003F400044B5B680C221340082BF9D1BD4602B0B4
:1004040080BDC0460010024000200240FF7FC0FFB4
:1004140080B582B000AF021CFB1D1A70FB1D1B7857
:10042400002B06D0074B074A126801210A431A60C1
:1004340005E0044B034A126801218A431A60BD4651
:1004440002B080BD0010024080B584B000AF786077
:100454000023FB60084B5B68FB60FB68032293434B
:10046400FB60FA687B681343FB60034BFA685A60CD
:10047400BD4604B080BDC0460010024080B582B0C5
:1004840000AF78600A1CFB1C1A70FB1C1B78002B45
:1004940006D0084B074A51697A680A435A6106E054
:1004A400044B044A52697968C9430A405A61BD46FB
:1004B40002B080BD0010024080B582B000AF786009
:1004C4000A1CFB1C1A70FB1C1B78002B06D0084B63
:1004D400074AD1697A680A43DA6106E0044B044AA0
:1004E400D2697968C9430A40DA61BD4602B080BD69
:1004F4000010024080B586B000AF021CFB1D1A70CC
:100504000023FB6000237B611323FB1800221A7075
:10051400FB1D1B785B09DBB2FB60FB68002B03D17E
:10052400184B1B687B6110E0FB68012B03D1154B52
:100534001B6A7B6109E0FB68022B03D1114B5B6AE8
:100544007B6102E00F4B5B6B7B61FB1D1B781F2201
:100554001340FB60FB687A69DA40131C01221340E4
:1005640004D01323FB1801221A7003E01323FB1891
:1005740000221A701323FB181B78181CBD4606B002
:1005840080BDC0460010024080B586B000AF7860E0
:10059400396000237B6100233B610023FB6000235F
:1005A4007B617CE07B6901229A40131C3B613B68C0
:1005B4001B683A691340FB60FA683B699A426BD145
:1005C4003B681B79012B03D03B681B79022B34D188
:1005D4007B689B687A695200111C03228A40D243CB
:1005E4001A407B689A607B689A683B685B79191C3F
:1005F4007B695B0099400B1C1A437B689A607B689B
:100604009B889BB27A6992B2111C01228A4092B2F1
:10061400D24392B213409AB27B689A807B689B88DB
:100624009AB23B689B79191C7B699BB299400B1C5D
:100634009BB213439AB27B689A807B681B687A6981
:100644005200111C03228A40D2431A407B681A606C
:100654007B681A683B681B79191C7B695B009940AD
:100664000B1C1A437B681A607B68DB687A6992B258
:100674005200032191400A1CD2431A407B68DA607D
:100684007B68DA683B68DB79191C7B695B009940FD
:100694000B1C1A437B68DA607B6901337B617B69DD
:1006A4000F2B00D87EE7BD4606B080BD80B582B072
:1006B40000AF78600A1CBB1C1A80BB1C1A887B68BC
:1006C4009A61BD4602B080BD80B582B000AF78604B
:1006D4000A1CBB1C1A807B68BA1C12881A85BD468A
:1006E40002B080BD80B584B000AF78600023FB60A9
:1006F4007B689B78002B39D0234A7B681B789B0846
:10070400DBB2C0339B009B58FB607B681B781A1CD0
:1007140003231340DB00FF229A40131CDA43FB68D7
:100724001340FB607B685B789B01FF221A407B6867
:100734001B78191C03230B40DB009A40131CFA6836
:100744001343FB6010497B681B789B08DBB2C03302
:100754009B00FA685A500C4B7A681278111C1F22BD
:100764000A40012191400A1C1A600AE006497B688C
:100774001B781A1C1F23134001229A40131C802249
:100784008B50BD4604B080BD00E100E080B584B06C
:1007940000AF786039600E23FB1800221A800E2304
:1007A400FB187A6812881A807B682D4A934208D015
:1007B4007A688023DB059A4203D07B68294A9342F6
:1007C40010D10E23FB180E22BA18128870218A4306
:1007D4001A803B6859880E23FB180E22BA18128817
:1007E4000A431A807B68204A934210D00E23FB18D8
:1007F4000E22BA1812881D490A401A803B681989CA
:100804000E23FB180E22BA1812880A431A807B683A
:100814000E22BA1812881A803B685A687B68DA621A
:100824003B681A887B681A857B680D4A93420BD013
:100834007B680F4A934207D07B680E4A934203D0E9
:100844007B680D4A934204D13B689B7A9AB27B68D9
:100854001A867B6801229A82BD4604B080BDC046D8
:10086400002C01400004004000100040FFFCFFFF8A
:1008740000400140004401400048014080B582B07E
:1008840000AF78600A1CFB1C1A70FB1C1B78002B41
:1008940008D07B681B889BB2012213439AB27B6801
:1008A4001A8007E07B681B889BB2012293439AB2AB
:1008B4007B681A80BD4602B080BDC04680B582B058
:1008C40000AF7860081C111CBB1C021C1A807B1C26
:1008D4000A1C1A707B1C1B78002B09D07B689B892F
:1008E4009AB2BB1C1B8813439AB27B689A810AE0B4
:1008F4007B689B899BB2BA1C1288D24392B2134084
:100904009AB27B689A81BD4602B080BD80B584B03E
:1009140000AF78600A1CBB1C1A800F23FB1800224E
:100924001A700C23FB1800221A800A23FB180022D9
:100934001A807B681B8A9AB20C23FB18B91C09889D
:100944000A401A807B689B899AB20A23FB18B91C57
:1009540009880A401A800C23FB181B88002B09D035
:100964000A23FB181B88002B04D00F23FB18012239
:100974001A7003E00F23FB1800221A700F23FB18D0
:100984001B78181CBD4604B080BDC04680B582B03B
:1009940000AF78600A1CBB1C1A80BB1C1B88DB439D
:1009A4009AB27B681A82BD4602B080BD80B582B01F
:1009B40000AF3B1C00221A6000225A6080239B0275
:1009C400181C0121FFF75AFD3B1C10221A603B1C26
:1009D40001221A713B1C00229A713B1C00225A719D
:1009E4003B1C0022DA719023DA053B1C101C191CF5
:1009F400FFF7CAFDBD4602B080BDC04680B584B0D5
:100A040000AF3B1D00221A6000225A6000229A6047
:100A140002200121FFF750FD3B1D00221A803B1DDF
:100A240000225A803B1DFA2252015A603B1D0022CB
:100A34001A813B1D00229A72104A3B1D101C191C7E
:100A4400FFF7A4FE3B1C10221A703B1C00225A70B4
:100A54003B1C01229A703B1C181CFFF743FE074BFA
:100A6400181C01210122FFF729FF044B181C012146
:100A7400FFF704FFBD4604B080BDC046000400403B
:100A840080B500AF0120FFF7C3FCC0460120FFF78B
:100A940031FD031E012BF9D10020FFF7D5FCBD4623
:100AA40080BDC04680B584B000AF7860064B1A683C
:100AB4007B68D318FB60C046034B1B68FA689A42F4
:100AC400FAD1BD4604B080BD4404002080B500AF17
:100AD400FFF7D6FFFFF792FFFFF768FF9023DB05D0
:100AE400181C1021FFF7E2FDFA235B00181CFFF726
:100AF400D9FF9023DB05181C1021FFF7E5FDFA232D
:100B04005B00181CFFF7CEFFE8E7C04680B500AFD6
:100B1400094B181C0121FFF7F9FE031E012B09D113
:100B2400064B1B685A1C054B1A60034B181C012109
:100B3400FFF72CFFBD4680BD0004004044040020A4
:100B440080B500AFBD4680BD80B500AFFEE7C046AE
:100B540080B500AFBD4680BD80B500AFBD4680BD49
:100B640080B500AFBD4680BD1248854604200168AB
:100B7400090E1F22914205D10F48012101600F483F
:100B840000210160002103E00D4B5B584350043108
:100B94000C480D4B42189A42F6D30C4A02E000234B
:100BA400136004320A4B9A42F9D3FFF77BFBFFF739
:100BB4008DFFFEE7002000201810024000000140D5
:100BC400080C00080000002028040020280400204D
:100BD40048040020FEE70000F8B5C046F8BC08BC95
:100BE4009E467047F8B5C046F8BC08BC9E467047A0
:080BF400430000000000002096
:080BFC00910200083D01000810
:040C040011010008D2
:100C080000000000EC02002054030020BC03002078
:100C180000000000000000000000000000000000CC
:100C280000000000000000000000000000000000BC
:100C380000000000F40B00080000000000000000A5
:100C4800000000000000000000000000000000009C
:100C5800000000000000000000000000000000008C
:100C6800000000000000000000000000000000007C
:100C7800000000000000000000000000000000006C
:100C8800000000000000000000000000000000005C
:100C9800000000000000000000000000000000004C
:100CA800000000000000000001000000000000003B
:100CB8000E33CDAB34126DE6ECDE05000B00000000
:100CC800000000000000000000000000000000001C
:100CD800000000000000000000000000000000000C
:100CE80000000000000000000000000000000000FC
:100CF80000000000000000000000000000000000EC
:0400000508000B6D77
:00000001FF
